:020000040800F2
:10000000700400209D0100085D160008B10A000878
:1000100059160008E90800082D1F0008000000001C
:100020000000000000000000000000003919000876
:10003000ED0800080000000049170008791A0008C0
:10004000B7010008B7010008B7010008B7010008B0
:10005000B7010008B7010008B7010008B7010008A0
:10006000B7010008B7010008B7010008B701000890
:10007000B7010008B7010008B7010008B701000880
:10008000B7010008B7010008B7010008B701000870
:10009000B7010008B7010008B7010008B701000860
:1000A000B7010008B7010008B7010008B701000850
:1000B000F11A0008B7010008B7010008B7010008ED
:1000C000B7010008B7010008B7010008B701000830
:1000D000B7010008B7010008B7010008B701000820
:1000E000B7010008B7010008B7010008B701000810
:1000F000B7010008B7010008B7010008B701000800
:10010000B7010008B7010008311B0008B70100085B
:10011000B7010008B7010008B7010008B7010008DF
:10012000B7010008B7010008B7010008B7010008CF
:10013000B7010008B7010008B7010008B7010008BF
:10014000B7010008B7010008B7010008B7010008AF
:10015000B7010008B7010008B7010008B70100089F
:10016000B7010008B7010008B7010008B70100088F
:10017000B7010008B7010008B7010008B70100087F
:10018000B7010008B7010008DFF80CD000F052FBFF
:1001900000480047092400087004002006488047F2
:1001A00006480047FEE7FEE7FEE7FEE7FEE7FEE75C
:1001B000FEE7FEE7FEE7FEE77D1A0008890100087A
:1001C0002DE9FE4F804681EA0300C00F0C460090E7
:1001D00021F0004123F00045B8EB0200A94105D20F
:1001E0004046214690461C460B46024623F00040FE
:1001F000104347D0270DC7F30A00C3F30A510290FA
:10020000401A019040286BDAC3F3130040F4801BBE
:100210000098924620B10023D2EB030A63EB0B0B4C
:1002200001985946C0F14002504600F0FDF90646DB
:100230000D4650465946019A00F005FA10EB0800A9
:100240006141002487EA115284EAE7731A4340D0DF
:10025000009A62B3019A012A4FEA075215DC001B8B
:1002600061EB02014FF0004202EA0752CDE9004281
:10027000001C41F5801132462B4600F03CFA03B0D9
:10028000BDE8F08F40462146F9E7001B61EB020113
:10029000001C41F5801300185B412018A2F50017DF
:1002A00047EB030140EAD570B6196D4111E06D08C6
:1002B0004FEA360645EAC0754FEA0752001B61EB6C
:1002C0000201001C41F5801149084FEA3000001975
:1002D000514132462B4603B0BDE8F04F00F0FCB967
:1002E0000098012240000023D0EB020263EBE07390
:1002F000009821464FEAE074B8EB000061EB04017E
:10030000E9E783F000435BE781F0004158E72DE91E
:10031000FE4F81EA030404F0004421F00041009400
:100320004FF0000B23F0004350EA01045ED052EA84
:1003300003045BD0C3F30A54C1F30A552C44A4F25E
:10034000F3340194A0FB0254C1F3130141F4801172
:10035000C3F3130343F4801301FB024400FB034E79
:10036000840A970A44EA815447EA8357A4FB076842
:1003700002958D0A05FB07854FEA932C04FB0C546C
:100380002705029D4FEA065847EA1637B5EB0805E0
:100390006EEB070C870E920E47EA811742EA831232
:1003A000A7FB0201B6EB0B0164EB00042B0D43EA43
:1003B0000C335E1844EB1C50DA465146E7FB020151
:1003C000C5F313044FEA0B3343EA14534FEA0432E4
:1003D000019C43EA0603A4F10C040294009CCDE9BD
:1003E00000B400F088F903B0BDE8F08F00200146AA
:1003F000F9E72DE9F04D81EA030404F0004B21F008
:10040000004514464FF0000A23F0004150EA05026F
:1004100020D054EA01021DD0C5F30A570246C5F3A5
:100420001303C1F31300C1F30A5640F4801543F4DB
:100430008013A7EB0608101BD64608F2FD3873EBB5
:10044000050002D308F1010801E092185B41B8F100
:10045000000F03DA00200146BDE8F08D00204FF4C4
:100460008011064684460EE0171B73EB050705D383
:10047000121B63EB050306434CEA010C49084FEAE3
:10048000300092185B4150EA0107EDD152EA0300B7
:1004900012D082EA040083EA0501084305D0101B4C
:1004A000AB4106D20122002306E000224FF00043B8
:1004B00002E06FF0010253101AEB06004CEB0851FA
:1004C00010EB0A0041EB0B01BDE8F04D00F004B960
:1004D00030B5041E71F1000404DB4FF000444042CB
:1004E00064EB0101141E73F1000405DB1C464FF0A0
:1004F0000043524263EB0403801A994101D3012067
:1005000030BD002030BD30B5041E71F1000404DBA5
:100510004FF00044404264EB0101141E73F10004EB
:1005200005DB1C464FF00043524263EB0403101AF4
:100530008B4101D2012030BD002030BD30B5041EFA
:1005400071F1000404DB4FF00044404264EB010110
:10055000141E73F1000405DB1C464FF000435242A9
:1005600063EB0403101A8B4101D3012030BD00203E
:1005700030BD30B5041E71F1000404DB4FF00044BF
:10058000404264EB0101141E73F1000405DB1C46BC
:100590004FF00043524263EB0403801A994101D2A9
:1005A000012030BD002030BD0EB5C10F80EAE070E3
:1005B0000844CA07002140F233438DE80E000A4682
:1005C0000B4600F098F803B000BD00F0004230F098
:1005D00000400AD0C10D01F56071C0F3160042EA77
:1005E0000151C2084007114370470020014670477F
:1005F00001F0004330B421F0004150EA010206D07E
:100600000A0DA2F56072C1F31301002A02DC30BCAE
:1006100000207047440F44EAC104C100E01830BC18
:1006200000EBC25000F021B8202A04DB203A00FA87
:1006300002F1002070479140C2F1200320FA03F339
:10064000194390407047202A06DBCB17203A41FA25
:1006500002F043EAE07306E041FA02F3D040C2F14F
:10066000200291400843194670470029A8BF7047EF
:10067000401C490008BF20F00100704710B4B0FAD8
:1006800080FC00FA0CF050EA010404BF10BC704773
:1006900049B1CCF1200421FA04F411FA0CF118BF8D
:1006A000012121430843A3EB0C01CB1D4FEA00615C
:1006B0004FEA102042BF002010BC704700EBC3502F
:1006C00010440029A4BF10BC7047401C490008BF5B
:1006D00020F0010010BC704710B5141E73F1000427
:1006E00008DA401C41F1000192185B411A4301D124
:1006F00020F0010010BD2DE9F04D92469B4611B14E
:10070000B1FA81F202E0B0FA80F220329046FFF7AF
:100710008BFF04460F4640EA0A0041EA0B015346AC
:100720005A46084313D0114653EA010019D0C8F1C4
:100730004002504600F090F805460E465046594695
:100740004246FFF771FF084305D0012004E0204630
:100750003946BDE8F08D0020054346EAE0762C439B
:1007600037430A986305E40AA0EB08000022FD0A5B
:1007700044EA47540A3002D500200146E9E7010562
:1007800010196941DDE9084500196941BDE8F04DDE
:10079000A2E72DE9F04D00231A461B1A8A4103DB1C
:1007A00000200146BDE8F08DC1F30A52C1F31301E8
:1007B00041F480154FF0000BD10702D100186D41B4
:1007C000521E0027044640F2FF11384601EB620A30
:1007D0003E468046024600204FF4801100F03CF86F
:1007E000C2197141BB1846EB0100B4EB030C75EB69
:1007F000000C04D3E41A65EB000517460E462419D5
:1008000008F101006D4180463428E3DDF91946EB1B
:100810000600091BA84103D24FF0FF32134601E046
:10082000002213461BEB070046EB0A51BDE8F04DD2
:10083000FFF752BF064C074D06E0E06840F00103A9
:1008400094E8070098471034AC42F6D3FFF7A0FCB9
:100850002031000840310008202A04DB203A21FA28
:1008600002F00021704721FA02F3D040C2F12002C9
:10087000914008431946704780B586B0B0EE401AE3
:10088000F0EE601A8DED020B029803999FED120BAA
:1008900053EC102B8DED001BFFF750FE00280FD1FD
:1008A000FFE79DED020B9FED0E1B51EC110B53EC7E
:1008B000102BFFF726FD41EC100B8DED040B04E02F
:1008C0009DED020B8DED040BFFE79DED040B06B0D3
:1008D00080BD00BF00BF00BF00000000000000009E
:1008E0000000000000000080FFE7FEE77047000006
:1008F00087B00A46034606900591002004900390B5
:100900000290049001920093FFE704980F286ED89C
:10091000FFE70498012101FA00F0039005980068B0
:100920000399084002900298039988425AD1FFE740
:1009300004984000032101FA00F006990A6822EAAF
:1009400000000860059840680499490088400699AD
:100950000A681043086005984068012805D0FFE741
:1009600005984068022828D1FFE704984000032139
:1009700001FA00F006998A6822EA0000886005986A
:10098000806804994900884006998A681043886005
:10099000BDF81000012101FA00F006994A6822EA28
:1009A0000000486005988089BDF81010884080B22A
:1009B00006994A6810434860FFE7BDF81000400000
:1009C000032101FA00F00699CA6822EA0000C86013
:1009D000059800690499490088400699CA6810433F
:1009E000C860FFE7FFE70498013004908DE707B087
:1009F0007047000010B587B013468C4686460690B7
:100A0000ADF816108DF815200020049003909DF885
:100A10001500BDF8161001F0070189008840049008
:100A2000BDF8160000F0070189000F2202FA01F15B
:100A3000069A47F6FC7404EA50001044026A22EA5F
:100A4000010101620698BDF8161004EA510108443C
:100A5000006A04990843039003980699BDF816208C
:100A600004EA5202114408620293CDF804C0CDF8A2
:100A700000E007B010BD000084B00A4603460390B2
:100A8000ADF80A10BDF80A0003994883019200935B
:100A900004B0704784B00A4603460390ADF80A10CC
:100AA000BDF80A00039908830192009304B07047CF
:100AB000FFE7FEE784B00A460346039002910298DE
:100AC00000280192009306D0FFE70398018841F4C3
:100AD0008061018005E00398018821F48061018034
:100AE000FFE704B07047000088B00A46034607904D
:100AF0000691002005900490039002900798808A48
:100B000004900798008B03900398000403900498C6
:100B10000399084320F07F40059005980699084006
:100B200088420192009303D1FFE70120029002E086
:100B300000200290FFE7029808B0704784B00A4690
:100B4000034603900291029800280192009306D078
:100B5000FFE70398018841F00101018005E0039857
:100B6000018821F001010180FFE704B07047000017
:100B700084B00A460346039002910298002801922D
:100B8000009306D0FFE70398018841F4807101804B
:100B900005E00398018821F480710180FFE704B02B
:100BA0007047000084B00A46034603900291029801
:100BB00000280192009306D0FFE70398018841F4D2
:100BC0000071018005E00398018821F40071018023
:100BD000FFE704B07047000087B00A46034606905E
:100BE00005910020049003900290069802900598C9
:100BF000000F0390059820F07F400590039800288F
:100C00000192009304D0FFE702981430029006E0AE
:100C1000BDF816000590029818300290FFE7029880
:100C200000680599084203D0FFE70120049002E024
:100C300000200490FFE7049807B0704780B58EB09D
:100C40000A4603460D900C910020ADF82E00ADF839
:100C50002C000421ADF82A1041F20021C0F27A01E3
:100C600009910D998988ADF82E10BDF82E1021F04C
:100C70003F01ADF82E1005A9049008460392029397
:100C800000F0A4FD0798099009984DF68361C4F21D
:100C90001B31A0FB0101890CADF82C10BDF82C1004
:100CA000BDF82E201143ADF82E10BDF82E100D9A70
:100CB00091800D990A8822F001020A800499ADF80A
:100CC0002E100C9A126848F2A063C0F201039A42F7
:100CD00001901ED8FFE709980C9909684900B0FBFC
:100CE000F1F0ADF82A00BDF82A00032804DCFFE784
:100CF0000420ADF82A00FFE7BDF82A00BDF82E1049
:100D00000843ADF82E00BDF82C0001300D99088481
:100D100048E00C98C0884BF6FF7188420AD1FFE783
:100D200009980C99096801EB4101B0FBF1F0ADF8AD
:100D30002A000FE009980C99096819225143B0FB69
:100D4000F1F0ADF82A00BDF82A0040F48040ADF87B
:100D50002A00FFE7BDF82A000005002807D1FFE7B9
:100D6000BDF82A0040F00100ADF82A00FFE7BDF809
:100D70002A00BDF82E10084340F40040ADF82E00C4
:100D8000BDF82C004FF49671484344F6D351C1F29C
:100D90006201A0FB0101012202EB91110D9A118465
:100DA0000090FFE7BDF82E000D9988830D9801880B
:100DB00041F0010101800D980088ADF82E00BDF8CA
:100DC0002E004FF6F5310840ADF82E000C988188C2
:100DD00040890843BDF82E100843ADF82E00BDF839
:100DE0002E000D9908800C988189008908430D997F
:100DF00008810EB080BD000082B0014601900198CC
:100E0000008AC0B2009102B07047000080B585B082
:100E100013468C46864604908DF80F108DF80E20F0
:100E20009DF80E0000280293CDF804C0CDF800E034
:100E300007D0FFE79DF80F0040F001008DF80F008C
:100E400006E09DF80F0000F0FE008DF80F00FFE7B0
:100E50009DF80F000499088205B080BD84B00A4651
:100E6000034603908DF80B109DF80B000399088240
:100E70000192009304B0704780B5BAB00DF1E20062
:100E800001F042FC37A801F077FCBDF9E200FFF762
:100E90008BFB41EC100B8DED340BBDF9E400FFF73B
:100EA00083FB41EC100B8DED320BBDF9E600FFF733
:100EB0007BFB41EC100B8DED300BBDF9DC00FFF737
:100EC00073FB41EC100B8DED2E0BBDF9DE00FFF72F
:100ED0006BFB41EC100B8DED2C0BBDF9E000FFF727
:100EE00063FB41EC100B8DED2A0B9DED320B9DED5C
:100EF000341B51EC110B21902091219A209B8DEDF8
:100F00001E0BFFF704FA41EC100B9DED301B51EC6A
:100F1000110B1D901C911D9A1C9B8DED1A0BFFF758
:100F2000F6F941EC100B9DED1A1B51EC110B53EC33
:100F3000102BFFF745F941EC100B01F08DFF53EC3E
:100F4000102B9DED1E0B51EC100BFFF752FA41ECEC
:100F5000100B01F01DFD51EC100B9FED7B0B53ECC2
:100F6000102B19921893FFF7D2F941EC100B8DED6D
:100F7000280B9DED340B9FED761B51EC110B53ECC0
:100F8000102BFFF7BEF941EC100B9DED301B01F06B
:100F90006BFE51EC100B199A189BFFF7B8F941EC56
:100FA000100B8DED260B9DED2E0B51EC100B9FEDD4
:100FB0006A0B53EC102B17921693FFF71AFA41ECB9
:100FC000100B8DED240B9DED2C0B51EC100B179A93
:100FD000169BFFF70EFA41EC100B8DED220B40F241
:100FE0003C00C2F20000006840F23401C2F200018D
:100FF0000860269827999FED5A0B53EC102BFFF7AA
:101000009DFA002811D1FFE740F26000C2F2000013
:1010100090ED000B9FED541B53EC112B51EC100B7A
:10102000FFF7A7FA00281CD1FFE7269827999FED24
:101030004E0B53EC102BFFF74BFA002835D1FFE78E
:1010400040F26000C2F2000090ED000B9FED441BE7
:1010500053EC112B51EC100BFFF770FA002824D140
:10106000FFE79DED260B51EC100BFFF7C1FA40F2A4
:101070003401C2F2000108609DED260B40F2180019
:10108000C2F2000080ED000B9DED260B40F26000E7
:10109000C2F2000080ED000B9DED260B40F25000E7
:1010A000C2F2000080ED000B2FE09DED260B51EC0D
:1010B000100BFFF79DFA00EE100A9DED221B51EC7C
:1010C000110B8DED150AFFF793FA00EE900A9FEDD4
:1010D000E81A9DED150A00F0CDF910EE100AFFF7A1
:1010E00074FA41EC120B40F26000C2F2000080ED95
:1010F000002B90ED002B51EC120BFFF779FA40F228
:101100003C01C2F200010860FFE740F23800C2F281
:101110000000006840F23401C2F20001086040F2B1
:101120006000C2F2000090ED000BFFF7A5FB9FED01
:10113000C41B53EC112B51EC100BFFF7C9F900281D
:1011400025D115E000BF00BFE8C35CB0DDA54C4071
:10115000000000000000008000000000006060400F
:1011600000000000008056C00000000000805640D3
:101170009DED240B9FEDB01B51EC110B53EC102B8C
:10118000FFF7BFF841EC100B8DED240BFFE79DED51
:10119000280B51EC100BFFF72BFA00EE100A9DED17
:1011A000241B51EC110B8DED140AFFF721FA00EE10
:1011B000900A9FEDAF1A9DED140A00F05BF910EE56
:1011C000100AFFF702FA41EC120B40F25800C2F28B
:1011D000000080ED002B90ED002B51EC120BFFF77F
:1011E00007FA40F23801C2F2000108609DED242B9D
:1011F00051EC120B9FED942B52EC12EB13927246B2
:10120000139BCDF848E0FFF782F841EC120B40F257
:101210004800C2F2000090ED003B53EC122B5EEC54
:10122000131B119008467146FEF7CAFF41EC120BE2
:10123000119880ED002B9DED222B51EC120B129A90
:10124000139BFFF764F841EC120B40F25000C2F21E
:10125000000090ED003B53EC122B5EEC131B109042
:1012600008467146FEF7ACFF41EC120B109880ED7A
:10127000002B40F21001C2F2000191ED002B9DED18
:10128000243B52EC130B0F911146129A139B8DEDD8
:101290000C2BFFF73CF841EC120B53EC122B9DED9D
:1012A0000C2B51EC120BFEF78BFF41EC120B51ECA7
:1012B000120B9FED672B53EC122B0B920A93FFF747
:1012C00026F841EC120B9DED283B51EC130B9FEDE2
:1012D000623B53EC132B099208938DED062BFFF71D
:1012E00016F841EC120B53EC122B9DED062B51EC32
:1012F000120BFEF765FF41EC120B0F9880ED002BEF
:1013000040F21801C2F2000191ED002B9DED223B4D
:1013100052EC130B05911146129A139B8DED022B83
:10132000FEF7F5FF41EC120B53EC122B9DED022B57
:1013300051EC120BFEF744FF41EC120B51EC120B77
:101340000B9A0A9BFEF7E3FF41EC120B9DED263B47
:1013500051EC130B099A089B8DED002BFEF7D7FF7C
:1013600041EC120B53EC122B9DED002B51EC120BA8
:10137000FEF726FF41EC120B059880ED002B11992A
:1013800091ED002B9FED363B53EC132B51EC120BE0
:10139000FFF7B9F8002811D1FFE740F24800C2F288
:1013A000000090ED000B9FED301B53EC112B51EC26
:1013B000100BFFF78DF800280DD1FFE740F2580021
:1013C000C2F2000090ED000B40F24800C2F20000B3
:1013D00080ED000BFFE740F25000C2F2000090EDFC
:1013E000000B9FED1F1B53EC112B51EC100BFFF763
:1013F0008AF8002811D1FFE740F25000C2F2000045
:1014000090ED000B9FED181B53EC112B51EC100BC2
:10141000FFF75EF800280DD1FFE740F26000C2F24E
:10142000000090ED000B40F25000C2F2000080ED91
:10143000000BFFE73AB080BD000000000000008014
:1014400000000000008056409A9999999999B93FF7
:10145000C3F5285C8FC2ED3FEC51B81E85EBB13F60
:1014600000000000008066C00000000000806640B0
:10147000CDCCCC3D8CB0B0EE412AB0EE603AB0EEAF
:10148000404A8DED0B0ACDED0A0A8DED091A9DED4E
:101490000A0A40F24000C2F2000090ED001A30EE5D
:1014A000410A40F24401C2F2000181ED000A9DEDC3
:1014B000090A91ED001A40F23401C2F20001D1EDA7
:1014C000000A40EE010AC1ED000A9DED090A40F252
:1014D0002402C2F2000292ED001AD2ED010A92ED4E
:1014E000025A92ED036A50EE060A30EEC55A40F2F7
:1014F0000403C2F2000393ED006A35EE065A00EED3
:10150000051A82ED001A9DED090A92ED011A92ED7D
:10151000035A00EE451A82ED011A9DED090A92ED7B
:10152000021A92ED035A00EE451A82ED021A40F2B9
:101530000803C2F2000393ED000A9DED091A92ED33
:10154000035A00EE015A82ED035A92ED000A40F26E
:101550000C03C2F2000393ED001A30EE010A8DED88
:10156000080A92ED000A9DED081A80EE010A8DED41
:10157000060A92ED020A9DED081A80EE010A8DED31
:10158000070A9DED0B0A91ED001A30EE410A8DED30
:10159000050A9DED060A9DED051A91ED005A00EE33
:1015A000015A81ED005A9DED070A9DED051A90ED57
:1015B000005A00EE015A80ED005A106804905068FD
:1015C00003909DED060A9DED041A92ED005A00EE7F
:1015D000415A82ED005A9DED060A9DED031A92EDE7
:1015E000015A00EE415A82ED015A9DED070A9DED28
:1015F000041A92ED025A00EE415A82ED025A9DED14
:10160000070A9DED031A92ED035A00EE415A82ED4E
:10161000035A91ED000A8DED022A8DED013A8DED10
:10162000004A0CB07047000082B00146019040F2C1
:101630005800C2F2000090ED000B019880ED000B05
:1016400040F26000C2F2000090ED000B019880EDC6
:10165000020B009102B07047FFE7FEE77047000001
:1016600083B00146029000208DF807008DF8060037
:101670000F208DF8050002984068002800914CD09A
:10168000FFE74EF60C50CEF20000006800F4E06078
:10169000C0F5E060000A8DF807009DF80700C0F172
:1016A00004008DF806009DF805009DF80710C8405D
:1016B0008DF80500029840789DF8061088408DF856
:1016C0000700029880789DF8051008409DF80710E3
:1016D00008438DF807009DF8070000018DF807000A
:1016E0009DF80700029909784EF20042CEF20002FE
:1016F00088540298007800F01F01012202FA01F1DB
:101700004EF20012CEF2000242EAD0004EF21C125B
:10171000CEF200021040016013E00298007800F061
:101720001F01012202FA01F14EF28012CEF20002F4
:1017300042EAD0004EF29C12CEF20002104001604C
:10174000FFE703B0704700007047000084B00A460E
:10175000034603900291029800280192009309D059
:10176000FFE7039843F63001C4F202010A68104310
:10177000086009E0039843F63001C4F202010A68E8
:1017800022EA00000860FFE704B0704784B00A4610
:10179000034603900291029800280192009309D019
:1017A000FFE7039843F64001C4F202010A681043C0
:1017B000086009E0039843F64001C4F202010A6898
:1017C00022EA00000860FFE704B0704789B00146D4
:1017D0000890002007900690059002220492039042
:1017E000029243F60800C4F20200006800F00C0008
:1017F0000790079800280191009008D0FFE7009813
:1018000004280BD0FFE7009808280ED051E0089874
:1018100042F20041C0F2F401016051E0089841F247
:101820000021C0F27A0101604AE043F60400C4F2EC
:1018300002000168C1F380510391006800F03F008D
:1018400002900398002811D0FFE7029841F200218E
:10185000C0F27A01B1FBF0F043F60401C4F20201D8
:101860000968C1F388114843059010E0029842F2DC
:101870000041C0F2F401B1FBF0F043F60401C4F200
:1018800002010968C1F3881148430590FFE743F658
:101890000400C4F20200006800F44030022101EBB1
:1018A000D030049005980499B0FBF1F008990860D5
:1018B00006E0089842F20041C0F2F4010160FFE73F
:1018C00043F60800C4F20200016801F0F00107913C
:1018D000079909090791079943F21012C0F600020F
:1018E000515C069108990B68DDF818C023FA0CF3D7
:1018F0004B60016801F4E05107910799890A07914B
:101900000799515C069108994B68DDF818C023FAD5
:101910000CF38B60006800F4604007900798400B60
:1019200007900798105C069008984168069AD14085
:10193000C16009B0704700007047000083B000200C
:101940000290019043F60000C4F20200016841F4E5
:1019500080310160FFE743F60000C4F20200006836
:1019600000F400300190029801300290FFE70198E6
:1019700000210028009109D1FFE70298A0F5A041BD
:10198000B0F5A04F18BF01210091FFE70098C007F4
:101990000028E0D1FFE743F60000C4F2020000682F
:1019A00010F4003F03D0FFE70120019002E0002087
:1019B0000190FFE7019801285AD1FFE743F6400064
:1019C000C4F20200016841F08051016047F200005A
:1019D000C4F20000016841F44041016043F6080090
:1019E000C4F2020001680160016841F40041016035
:1019F000016841F4A051016043F60400C4F2020002
:101A000045F20841C0F24071016043F60000C4F2A3
:101A10000200016841F080710160FFE743F60000B9
:101A2000C4F20200006810F0007F01D1FFE7F5E783
:101A300043F60040C4F2020040F20571016043F633
:101A40000800C4F20200016821F00301016001688E
:101A500041F002010160FFE743F60800C4F2020012
:101A6000006800F00C00082801D0FFE7F4E700E070
:101A7000FFE703B0704700007047000080B54EF6E6
:101A80008850CEF20000016841F47001016043F615
:101A90000000C4F20200016841F00101016043F658
:101AA0000801C4F2020100220A6001684FF6FF73C8
:101AB000CFF6F6631940016043F60401C4F2020157
:101AC00043F21003C2F200430B60016821F480214D
:101AD000016043F60C00C4F202000260FFF72EFF23
:101AE0004EF60850CEF200004FF00061016080BD5C
:101AF00080B582B04FF080400121019000F024F8C1
:101B0000019800F0ABF8142808D8FFE740F2200055
:101B1000C2F2000001880131018007E040F220009C
:101B2000C2F20000018801390180FFE702B080BDE8
:101B300080B540F60040C4F20000012100F004F836
:101B400000F0C4FE80BD000084B00A460346039046
:101B5000ADF80A10BDF80A00C0430399088201924B
:101B6000009304B07047000084B00A460346039017
:101B70000291029800280192009306D0FFE7039893
:101B8000018841F00101018005E00398018821F0FE
:101B900001010180FFE704B070470000B0B588B0D4
:101BA0009C4696460C4605460790ADF81A10ADF8CF
:101BB0001820ADF816300020ADF81400ADF8120072
:101BC000ADF8100007980089ADF814000798008B55
:101BD000ADF812000798008CADF81000BDF81400A5
:101BE00020F00700ADF81400BDF81A00BDF814107D
:101BF0000843ADF81400BDF812004FF6FC41084050
:101C0000ADF81200BDF8120040F201110843ADF822
:101C10001200BDF8100020F02200ADF81000BDF851
:101C20001800BDF8161040EA0110BDF81010084366
:101C3000ADF81000BDF8140007990881BDF8120036
:101C400007990883BDF8100007990884CDF80CC0E7
:101C5000CDF808E00194009508B0B0BD82B001460F
:101C600001900198406A009102B0704780B586B03B
:101C700013468C4686460590ADF8121003920398E1
:101C800000280293CDF804C0CDF800E007D0FFE7AC
:101C9000BDF8120005998A891043888107E0BDF8D4
:101CA000120005998A8922EA00008881FFE706B0C0
:101CB00080BD000086B00A460346059004910020CE
:101CC000ADF80E00ADF80C00ADF80A000598018CD7
:101CD00021F0100101840598008CADF80C000598E6
:101CE0008088ADF80A000598008BADF80E00BDF8AD
:101CF0000E0020F4E040ADF80E00BDF80E0020F418
:101D00004070ADF80E0004980088BDF80E1041EA4E
:101D10000020ADF80E00BDF80C0020F02000ADF85A
:101D20000C0004988089BDF80C1041EA0010ADF851
:101D30000C0004984088BDF80C1041EA0010ADF882
:101D40000C0005980021C4F2010188420192009321
:101D500008D0FFE7059840F20041C4F20101884233
:101D600039D1FFE7BDF80C0020F08000ADF80C0081
:101D70000498C089BDF80C1041EA0010ADF80C00C1
:101D8000BDF80C0020F04000ADF80C0004988088ED
:101D9000BDF80C1041EA0010ADF80C00BDF80A00C7
:101DA00020F48060ADF80A00BDF80A0020F400605D
:101DB000ADF80A000498008ABDF80A1041EA8000D4
:101DC000ADF80A000498408ABDF80A1041EA800084
:101DD000ADF80A00FFE7BDF80A0005998880BDF854
:101DE0000E00059908830498806805998863BDF8FA
:101DF0000C000599088406B07047000084B00A46BC
:101E0000034603900291029803994862019200935D
:101E100004B0704785B00A46034604900391002041
:101E2000ADF80A0004980088ADF80A000498002173
:101E3000C4F2010188420192009325D0FFE7049883
:101E400040F20041C4F2010188421DD0FFE704982E
:101E5000B0F1804F18D0FFE7049840F20041C4F27F
:101E60000001884210D0FFE7049840F60001C4F258
:101E70000001884208D0FFE7049840F60041C4F210
:101E8000000188420ED1FFE7BDF80A0020F0700083
:101E9000ADF80A0003984088BDF80A100843ADF871
:101EA0000A00FFE7049841F20001C4F200018842F1
:101EB00016D0FFE7049841F20041C4F200018842C5
:101EC0000ED0FFE7BDF80A0020F44070ADF80A001C
:101ED00003980089BDF80A100843ADF80A00FFE72F
:101EE000BDF80A0004990880039840680499C86204
:101EF000039800880499088504980021C4F2010120
:101F0000884208D0FFE7049840F20041C4F2010182
:101F1000884205D1FFE70398807A04990886FFE795
:101F200004980121818205B070470000FFE7FEE7B9
:101F300080B592B00A4603461190ADF842100220D7
:101F400001210690059104920393FFF7FFFB069889
:101F50000C9005990E91C0220B920D900F9140F2BA
:101F60000042C4F202020BA910460292FEF7C0FC26
:101F700006210420029A01901046019AFEF73AFDCC
:101F800007210298019AFEF735FD4FF400100599DC
:101F9000FFF7FCFB0020ADF826004FF48041ADF8C0
:101FA000281011990791BDF84210ADF82210ADF834
:101FB000200045F20040C4F2000007A90090FEF79F
:101FC0003DFE00980599FEF7B9FD059812B080BD59
:101FD00080B586B013468C46864604908DF80F1067
:101FE0008DF80E20049801210293CDF804C0CDF89D
:101FF00000E0FEF7BDFD4FF47A70ADF80C00FFE78E
:1020000004980121C0F20301FEF76EFD00280DD1F6
:10201000FFE7BDF90C00411EADF80C10002804D1FB
:10202000FFE700208DF8170050E0E9E704989DF8DD
:102030000F1049009DF80E20C9B2FEF7E7FE9DF88B
:102040000E0000281CD1FFE74FF47A70ADF80C00A9
:10205000FFE704988221C0F20701FEF745FD002842
:102060000DD1FFE7BDF90C00411EADF80C100028A2
:1020700004D1FFE700208DF8170027E0E9E721E011
:102080009DF80E0001281CD1FFE74FF47A70ADF8DF
:102090000C00FFE704980221C0F20301FEF724FDC3
:1020A00000280DD1FFE7BDF90C00411EADF80C1062
:1020B000002804D1FFE700208DF8170006E0E9E7CB
:1020C000FFE7FFE701208DF81700FFE79DF91700F4
:1020D00006B080BD80B584B001460390039801220C
:1020E000029111460192FEF75DFD019804B080BD9A
:1020F00080B586B00A4603460490039104980121F6
:1021000001920093FEF7D6FC4FF47A70ADF80A0006
:10211000FFE704984021C0F20301FEF7E5FC002828
:102120000FD1FFE7BDF80A000138ADF80A004FF6FD
:10213000FF71084204D1FFE700208DF817000BE083
:10214000E7E70498FEF758FEDDF80CE08EF8000093
:1021500001208DF81700FFE79DF9170006B080BD3C
:1021600080B586B00A460346049003910498002186
:1021700001920093FEF79EFC4FF47A70ADF80A00CE
:10218000FFE704984021C0F20301FEF7ADFC0028F0
:102190000FD1FFE7BDF80A000138ADF80A004FF68D
:1021A000FF71084204D1FFE700208DF817000BE013
:1021B000E7E70498FEF720FEDDF80CE08EF800005B
:1021C00001208DF81700FFE79DF9170006B080BDCC
:1021D00070B590B0DDF850C09E4614460D460646D8
:1021E0000E908DF837108DF836200C938DF82FC097
:1021F0004FF47A70ADF82C00CDF824E008940795E0
:102200000696FFE70E984FF40031FEF7E5FC002834
:102210000DD0FFE7BDF92C00411EADF82C100028B1
:1022200004D1FFE700208DF83F0050E0EAE70E9868
:102230009DF837100022FFF7CBFE0E990DF1360204
:1022400005900846114600F047F86421ADF82A10C1
:102250000490FFE7BDF82A00411EADF82A100028BF
:1022600001D0FFE7F6E70E989DF837100122FFF73F
:10227000AFFE00218DF829100390FFE79DF929009A
:102280009DF82F10013988420FDAFFE70E980C995C
:102290009DF929201144FFF72BFF0290FFE79DF8DD
:1022A000290001308DF82900E8E70E980C999DF877
:1022B0002F2011440139FFF753FF0E990190084672
:1022C000FFF708FF01218DF83F100090FFE79DF90F
:1022D0003F0010B070BD000080B586B00A460346CE
:1022E0000490039104980399097801920093FEF7F2
:1022F000B5FD4FF47A70ADF80A00FFE70498842129
:10230000C0F20701FEF7F0FB00280FD1FFE7BDF890
:102310000A000138ADF80A004FF6FF71084204D1F7
:10232000FFE700208DF8170004E0E7E701208DF8B3
:102330001700FFE79DF9170006B080BD70B590B09B
:10234000DDF850C09E4614460D4606460E908DF8A8
:1023500037108DF836200C938DF82FC04FF47A701B
:10236000ADF82C00CDF824E0089407950696FFE719
:102370000E984FF40031FEF72FFC00280DD0FFE738
:10238000BDF92C00411EADF82C10002804D1FFE748
:1023900000208DF83F0033E0EAE70E989DF83710F3
:1023A00000220592FFF714FE0E990DF136020490FB
:1023B00008461146FFF790FF05998DF82B10039002
:1023C000FFE79DF92B009DF82F1088420FDAFFE7F9
:1023D0000E980C999DF92B201144FFF77DFF029078
:1023E000FFE79DF82B0001308DF82B00E9E70E98F0
:1023F000FFF770FE4FF0010E8DF83FE00190FFE710
:102400009DF93F0010B070BD80B584B000200390EE
:1024100000F0E0F840F60040C4F202004FF48041C2
:10242000FEF738FB00F0A6F800F0DEF900F048F8FF
:1024300040F20560ADF8040040F20120C0F2034014
:102440000090FFE74FF08040FFF708FC40F2220EBB
:10245000C2F2000EAEF8000000F00EF8002806D020
:10246000FFE700F029F8002000F012FAFFE76846C5
:10247000FFF7DAF8E6E7000040F26800C2F2000079
:102480000078704780B586B0082001210091FFF7E1
:102490005DF900980290002104914FF4804ECDF830
:1024A00004E0059140F60040C4F2020001A9FEF7E5
:1024B0001FFA06B080BD000080B5FEF7DDFC80BDD0
:1024C00080B58EB0012003900399FFF73FF90220F9
:1024D0000A900320099003990D910B900020C4F2FB
:1024E000020009A90290FEF703FA00200299019068
:1024F00008460199039AFEF77DFA02980399039A18
:10250000FEF778FA03980399FFF740F90198ADF8C0
:102510002000ADF81A004FF6FF710791ADF81800D2
:102520004FF0804106AA084600911146FFF772FC61
:1025300000980199FFF762FC00980399039AFFF74E
:1025400095FB00980399019A019BFFF727FB1C203C
:102550008DF8100003988DF811008DF81200059089
:1025600004A8FFF77DF800980399FFF7FDFA0EB075
:1025700080BD000080B586B0082001210291FFF7E0
:1025800005F90020ADF81400ADF80E0042F2D001BC
:10259000049140F2E731ADF80C1040F60041C4F26E
:1025A00000010DF10C0E0190084600917146FFF7F5
:1025B00031FC00980199FFF721FC00980299029ADA
:1025C000FFF754FB00F0AEF900980299FFF7CCFA40
:1025D00006B080BD80B58AB0FFF754FF4FF0000E03
:1025E0008DF827E040F64050C0F203004FF48041E0
:1025F000FFF79EFC0790FFE79DF92700002840F0B9
:102600008180FFE7FFE745F20040C4F2000006903A
:1026100000F094F980208DF82200EE460121CEF8DA
:10262000001068216B220DF12203DDF818E00590FF
:102630007046FFF783FE8DF8270005988DF822007D
:10264000FFE768460121016045F20040C4F2000046
:1026500068216B220DF12203FFF7BAFD8DF82700E8
:10266000FFE79DF8220000060028EAD4FFE79DF866
:102670002200002801D1FFE7C5E709208DF82200DC
:1026800068460121016045F20040C4F20000682262
:102690006B230DF1220C04900391114602921A460D
:1026A0006346CDF804C0FFF749FE8DF827000020EF
:1026B0008DF8220003208DF8230018218DF82410B6
:1026C00010218DF825108DF826006846052101603F
:1026D000192204980299019BFFF730FE8DF827001C
:1026E00030208DF8220003988DF8230069460222DD
:1026F0000A60372204980299019BFFF71FFE8DF8AC
:10270000270079E70AB080BD80B586B00146059004
:102710000291FFE768460621016045F20040C4F2DD
:10272000000068213B220DF10E03FFF751FD002848
:1027300007D1FFE745F20040C4F2000000F0FEF8C8
:10274000E8E79DF80E009DF80F1041EA002005997A
:1027500008809DF810009DF8111041EA00200599AD
:1027600048809DF812009DF8131041EA0020059959
:10277000888006B080BD000080B586B00146059017
:102780000291FFE768460621016045F20040C4F26D
:102790000000682143220DF10E03FFF719FD002808
:1027A00007D1FFE745F20040C4F2000000F0C6F890
:1027B000E8E79DF80E009DF80F1041EA002005990A
:1027C00008809DF810009DF8111041EA002005993D
:1027D00048809DF812009DF8131041EA00200599E9
:1027E000888006B080BD000080B592B001200490C2
:1027F0000499FEF7ABFF02200E90002110910D907E
:10280000DDF810E0CDF844E00F900020C4F20200A3
:102810000DAA039002911146FEF76AF803980499F5
:10282000049AFEF7E7F804980499FEF7AFFF0298C0
:10283000ADF83000ADF82A0044F62001C0F20101E5
:102840000B916321ADF828104FF080410AAA084689
:1028500001911146FFF7DEFA0298ADF824006021DD
:10286000ADF814104FF48071ADF82410ADF82000CD
:102870000499ADF8161042F2D002079205A901980A
:10288000FFF718FA01980499FFF76EF912B080BDAE
:1028900082B001468DF807009DF8070040F26802FB
:1028A000C2F200021070009102B0704782B001467F
:1028B0008DF807009DF8070040F26802C2F200029E
:1028C000137818431070009102B0704780B540F241
:1028D0006900C2F2000090F9000000280FD1FFE764
:1028E00040F26900C2F200000121017040F6004090
:1028F000C4F202004FF48041FEF7CCF80EE040F243
:102900006900C2F200000021017040F60040C4F2EC
:1029100002004FF48041FEF7AFF8FFE70120FFF718
:10292000C5FF80BD80B582B032208DF80000012047
:1029300001906846FEF794FE02B080BD80B582B07B
:10294000014601900198002200911146FEF7F6F829
:1029500001980121FEF7F2F802B080BD03B401989E
:102960004100009850EAC12018BF04204A0D18BF4A
:1029700040F0010040F2FF72B2EB515F08BF40F03F
:102980000200012808BF052002B0704700000000C7
:1029900070B59B482DED020B2DED068B079D25F0A4
:1029A0000044A04218DC9748844202DC0AD1069811
:1029B00040B19DED060BBDEC068B02B0BDE870404A
:1029C00000F003BB002DCCBF9FED8F0B9FED900B54
:1029D000BDEC068B02B070BD8F48A04215DD8F485C
:1029E000A042D8BF4FF0FF3458DD9DED060B51ECEF
:1029F000100BFFF7B3FF042808BF00F0FDFA9DEDB0
:102A0000060BBDEC068B02B070BD9DED060B51ECC4
:102A1000100B00F01FFBCDE9060181489FED828B72
:102A2000A0423CDD8248A0421FDD00249FED82AB26
:102A30009DED060B53EC1A2B51EC100BFDF7C0FB70
:102A40009DED060B41EC190B53EC1A2B51EC100BBE
:102A5000FDF75DFC53EC182BFDF753FC53EC192BE1
:102A6000FDF7C7FCCDE9060149E09DED060B012409
:102A700053EC182B51EC100BFDF7A2FB9DED060B50
:102A800041EC190B53EC182B51EC100BFDF739FCF2
:102A900053EC192BFDF7ADFCCDE906012FE068489A
:102AA000A0421FDD02249FED689B9DED060B53ECB9
:102AB000192B51EC100BFDF72AFC53EC182BFDF7EA
:102AC0007FFB9DED060B41EC180B53EC192B51ECE1
:102AD000100BFDF716FC53EC182BFDF78AFCCDE923
:102AE00006010CE09DED060B032453EC102B9FED2B
:102AF000580B51EC100BFDF77CFCCDE906019DED68
:102B0000060B53EC102B51EC100BFDF700FC41ECC5
:102B1000180B53EC182BFDF7FAFB41EC190B4E4840
:102B20000621B0EE490AF0EE690A784400F0D1F9C6
:102B300053EC182B51EC100BFDF7E9FB41EC180B93
:102B40004648B0EE490AF0EE690A0521784400F0E3
:102B5000C0F953EC192B51EC100BFDF7D8FB41ECED
:102B6000100B51EC180B53EC102B002C0EDAFDF768
:102B700027FB9DED061B53EC112BFDF7C8FB9DEDCC
:102B8000061B53EC112BFDF7BFFB35E0FDF718FBDF
:102B90009DED061B53EC112BFDF7B9FB41EC100B1F
:102BA0002F48784400EBC40090ED001B51EC100B53
:102BB00053EC112BFDF7A5FB9DED061B53EC112BE0
:102BC000FDF79FFB41EC100B2648784400EBC40056
:102BD00090ED001B51EC100B53EC112BFDF794FB07
:102BE00041EC100B002DA2BFBDEC068B02B070BDF6
:102BF00051EC100B81F0004141EC100B01E700009B
:102C0000000010440000F07F182D4454FB21F93FD0
:102C1000182D4454FB21F9BF0000DC3F0000203E8A
:102C20000000F33F00000000000000000000F03F43
:102C30000000E63F0000000000000000000000402F
:102C40000080034000000000000000000000F83F8A
:102C5000000000000000F0BFAA05000060050000B1
:102C6000EA040000A204000070B56B4E2DED040BC9
:102C70002DED028B82B0DDF81CC0DDE905235C423E
:102C80002CF000411C4341EAD474049D22F0004022
:102C9000B44205D86C422C4340EAD474B4420BD9F8
:102CA0009DED061B9DED040B02B0BDEC028B04B044
:102CB000BDE8704000F093B9ACF14054A4F17F64DA
:102CC0001C430BD0022404EAAC7444EAD2740543DA
:102CD0009FED538B9FED542B07D015E09DED040B1A
:102CE00051EC100B00F0AEF942E0002C11BF012CAA
:102CF0009DED040B02B0BDEC028B04BF04B070BDAF
:102D0000022C38D0032C3BD00B439FED491B9FED89
:102D10004A0B0AD0B14218D1B04209D121F080410A
:102D200020F08040079105900FE0002A15DA10E0AE
:102D3000434B7B44002C08BF93ED000B0DD0012CBE
:102D400010D0022C17D0032C1AD0B0421DD1002A6B
:102D500003DAB0EE410AF0EE610A02B0BDEC028B7C
:102D600004B070BD93ED000B51EC100B81F00041ED
:102D700041EC100BF1E7B0EE480AF0EE680AECE720
:102D8000B0EE420AF0EE620AE7E7401A00153C286E
:102D9000C8BF8DED000B19DCBCF1000FBEBF10F1F8
:102DA0003C0F9FED290B8DED000B0FDB9DED060B0E
:102DB00053EC102B9DED040B51EC100BFDF719FBA0
:102DC00000F048F900F03EF9CDE90001002C08BF01
:102DD0009DED000BC1D0012C10D0022C9FED1C0BDF
:102DE00053EC102B9DED000B51EC100B0DD0FDF7AB
:102DF00088FA53EC182BFDF784FAB9E7019880F0B4
:102E0000004001909DED000BA7E7FDF77AFA53EC27
:102E1000182BFDF779FAABE70000F07F0000000007
:102E2000182D4454FB210940182D4454FB2109C09E
:102E3000182D4454FB21F9BF182D4454FB21F93FB0
:102E4000D2030000000000000000000000000000AD
:102E5000075C143326A6A13C00B52DED048BB0EE23
:102E6000409AF0EE609A83B051EC190BFDF791FC9B
:102E700041EC180B18EE100A18EE901A8DED008B2D
:102E8000002818BF0120084320F00040C0F17F60F7
:102E900000F1E040C00F14D019EE101A19EE900A9C
:102EA0008DED009B002918BF0121084320F0004050
:102EB000C0F17F6000F1E040C00F04BF012000F0CE
:102EC000BBF8B0EE480A03B0F0EE680ABDEC048B24
:102ED00000BD70B504462DED028B4D1E00EBC50004
:102EE000B0EE408AF0EE608A90ED000B35F00600FF
:102EF00017D053EC182B51EC100BFDF708FA41ECEE
:102F0000100B6D1E04EBC50090ED001B51EC100B77
:102F100053EC112BFDF754F941EC100B35F0060082
:102F2000E7D1022D36D0042D1CD0062D1CBFBDECE0
:102F3000028B70BD53EC182B51EC100BFDF7E7F929
:102F400094ED0A1B53EC112BFDF73AF953EC182BB7
:102F5000FDF7DDF994ED081B53EC112BFDF730F96B
:102F600041EC100B53EC182B51EC100BFDF7CFF983
:102F700094ED061B53EC112BFDF722F953EC182BA3
:102F8000FDF7C5F994ED040B53EC102BFDF718F980
:102F900041EC100B53EC182B51EC100BFDF7B7F96B
:102FA00094ED021B53EC112BFDF70AF953EC182B8F
:102FB000FDF7ADF994ED001B53EC112BFDF700F973
:102FC000BDEC028B41EC100B70BD10B553EC102B17
:102FD00051EC100BFDF7F4F841EC100B10BD10B5DF
:102FE00053EC112B51EC100BFDF7EAF841EC100BF0
:102FF00010BD0000000000009FED050B10B553EC64
:10300000102B51EC100BFDF782F941EC100B10BDA9
:10301000000000000000001002E008C8121F08C1F4
:10302000002AFAD170477047002001E001C1121F49
:10303000002AFBD17047000001490860704700007A
:103040000000002010B541EC100BFFF7A1FC51EC83
:10305000100B10BD82B0CDE9000121F000400190BD
:103060009DED000B02B051EC100B7047000000000A
:103070004FBB610567ACDD3F182D4454FB21E93F90
:103080009BF681D20B73EF3F182D4454FB21F93F7F
:10309000E2652F227F2B7A3C075C143326A6813C05
:1030A000BDCBF07A8807703C075C143326A6913CB0
:1030B000C4EB98999999C9BF711623FEC671BCBF1C
:1030C0006D9A74AFF2B0B3BF9AFDDE522DDEADBF84
:1030D0002F6C6A2C44B4A2BF0D5555555555D53F9C
:1030E000FF8300922449C23F6E204CC5CD45B73FB7
:1030F000513DD0A0660DB13FEB0D76244B7BA93F2F
:1031000011DA22E33AAD903F000000000000000019
:10311000000000000102030401020304060708097D
:1031200040310008000000201000000018300008A6
:103130005031000810000020600400002830000812
:10314000000000006F12833AA69B443B8FC2F53CFF
:040000050800019D51
:00000001FF
